:100000000C9447010C9478010C9478010C947801BD
:100010000C9478010C9478010C9478010C9478017C
:100020000C9478010C9478010C9478010C9478016C
:100030000C9478010C9478010C9478010C9478015C
:100040000C9478010C9478010C9478010C9478014C
:100050000C9478010C9478010C9478010C94E608C7
:100060000C9478010C94B7050C948D050C947801D0
:100070000C9478010C94ED050C9478010C947801A3
:100080000C9478010C9478010C9478010C9478010C
:100090000C9478010C9478010C9478010C947801FC
:1000A0000C9478010C9478010C9478010C947801EC
:1000B0000C9478010C9478010C9478010C947801DC
:1000C0000C9478010C9478010C9478010C947801CC
:1000D0000C9478010C9478010C9478010C947801BC
:1000E0000C9478016E067106600664066A06A8061E
:1000F000750679067F06830687068D0691069506A6
:10010000A8069B069F06A3060C947A010C94A306EE
:100110000C94A8010C9460060C9479060C94A80623
:100120000C94B7010C9471060C94780F0C94CB01CD
:100130000C946A060C9483060C9487060C94910622
:100140000C948D060C94D9010C945E020C946406F8
:100150000C949B060C946E060C9411020C9495065C
:100160000C947F060C949F060C94750600002100E9
:10017000240027002A002D00300033000101000078
:10018000040107010A0100002200250028002B00BD
:100190002E003100340002010000050108010B01AE
:1001A000000020002300260029002C002F00320030
:1001B0000001000003010601090105050505070509
:1001C00008080808020202020A0A080804040404D3
:1001D00001010101010101010303030303030303FF
:1001E000040707070C0C0C0C0C0C0C0C020202028E
:1001F00006060606060606060B0B0B0B0B0B0B0B77
:100200000102102020080810204010204080020128
:10021000020108040201010204081020408080400D
:10022000201008040201800402018040201008040C
:1002300002010804020101020408102040800102AA
:1002400004081020408000000A0B02090C0D0E0863
:10025000070304010000000000000000000000008F
:10026000000000000000000000000000000000008E
:10027000000012111000000000000000000000004B
:10028000000000000000000000000000780F1124B2
:100290001FBECFEFD1E2DEBFCDBF00E00CBF12E04A
:1002A000A0E0B2E0ECE6F5E200E00BBF02C0079090
:1002B0000D92AE3FB107D9F72FE1AEEFB2E001C02A
:1002C0001D92AC39B207E1F711E0C7E4D1E000E0DC
:1002D00006C021970109802FFE010E94EA0FC63453
:1002E000D10780E00807A9F70E9430090C94B412E6
:1002F0000C940000CF92DF92EF92FF920F931F9326
:10030000CF93DF936C017A018B01C0E0D0E0CE1572
:10031000DF0581F0D8016D918D01D601ED91FC9141
:100320000190F081E02DC6011995892B11F02196DD
:10033000EECF7E01C701DF91CF911F910F91FF900A
:10034000EF90DF90CF900895089580E090E00895B9
:10035000FC01538D448D252F30E0842F90E0821BCB
:10036000930B541710F0CF96089501970895FC0150
:10037000918D828D981761F0828DDF01A80FB11DDC
:100380005D968C91928D9F5F9F73928F90E0089500
:100390008FEF9FEF0895FC01918D828D981731F0BA
:1003A000828DE80FF11D858D90E008958FEF9FEF0E
:1003B0000895FC01918D228D892F90E0805C9F4FE4
:1003C000821B91098F739927089585EF9EE10E9402
:1003D000D90121E0892B09F420E0822F0895FC0146
:1003E000848DDF01A80FB11DA35ABF4F2C91848DBE
:1003F00090E001968F739927848FA689B7892C93F3
:10040000A089B1898C91837080648C93938D848D45
:10041000981306C00288F389E02D80818F7D808348
:100420000895EF92FF920F931F93CF93DF93EC0108
:1004300081E0888F9B8D8C8D981305C0E889F989A0
:10044000808185FD26C0F62E0B8D10E00F5F1F4FBB
:100450000F731127E02E8C8DE8120CC00FB607FC2D
:10046000FACFE889F989808185FFF5CFCE010E9416
:10047000EF01F1CF8B8DFE01E80FF11DE35AFF4F25
:10048000F0829FB7F8940B8FEA89FB8980818062A4
:100490000AC09FB7F894EE89FF896083E889F989DB
:1004A00080818370806480839FBF81E090E0DF91D2
:1004B000CF911F910F91FF90EF900895CF93DF930D
:1004C000EC01888D8823C9F0EA89FB89808185FD4C
:1004D00005C0A889B9898C9186FD0FC00FB607FCAD
:1004E000F5CF808185FFF2CFA889B9898C9185FFEE
:1004F000EDCFCE010E94EF01E7CFDF91CF910895BC
:1005000080E090E0892B21F00E94E501811125C057
:1005100080E090E0892B41F080E090E0892B21F091
:100520000E94000081111CC080E090E0892B41F006
:1005300080E090E0892B21F00E940000811113C01F
:1005400080E090E0892BA1F080E090E0892B81F0A1
:100550000E94000081110AC008950E940000D8CFB7
:100560000E940000E1CF0E940000EACF0C9400003E
:1005700008954F925F926F927F928F929F92AF9267
:10058000BF92CF92DF92EF92FF920F931F93CF9380
:10059000DF934B015C018091060390910703A091CA
:1005A0000803B091090388159905AA05BB0509F44C
:1005B000D2C08CE3C82ED12CE12CF12CC501B401A2
:1005C000A70196010E94C80F60930A03CA01B901EE
:1005D000A70196010E94C80F60930B03C501B401E7
:1005E00020E13EE040E050E00E94C80FCA01B9019E
:1005F00028E130E040E050E00E94C80F60930C0317
:10060000C501B40120E831E541E050E00E94C80F87
:1006100069017A01CA01B9016C5F7F4F8F4F9F4F0B
:1006200027E030E040E050E00E94C80F6F5F609329
:100630000D03412C512C320140E004E610E0C0E9EA
:10064000D1E0242F30E02E54384FF901E370FF271A
:10065000309789F4C901B8010E94B40F892B31F495
:10066000C901BE010E94B40F892B29F48EE691E0E6
:10067000A0E0B0E004C08DE691E0A0E0B0E0480E5C
:10068000591E6A1E7B1ED301C201AA27BB27C816AA
:10069000D906EA06FB0610F04F5FD3CF4093100354
:1006A000309799F4C90164E670E00E94B40F892B79
:1006B00039F4C90160E971E00E94B40F892B29F473
:1006C0008EE691E0A0E0B0E004C08DE691E0A0E00D
:1006D000B0E0481A590A6A0A7B0AC418D508E60825
:1006E000F708C90164E670E00E94B40FEC01C9018B
:1006F00060E971E00E94B40FA0E1B2E020E0213097
:1007000039F4309749F4209729F4009729F402C06E
:100710004C9103C04DE101C04CE150E060E070E05D
:10072000C416D506E606F70640F0C41AD50AE60A4E
:10073000F70A2F5F11962C3011F72F5F20930F03CC
:10074000C394C0920E038092060390920703A09276
:100750000803B0920903DF91CF911F910F91FF9091
:10076000EF90DF90CF90BF90AF909F908F907F9051
:100770006F905F904F9008959FB7F8948091050314
:10078000882319F08150809305038091050381111E
:1007900003C08CB58F7B8CBD9FBF0895843608F055
:1007A00083E66AE00E94A80F805D80930203905D5B
:1007B0009093030382E093E00895CF92DF92EF924B
:1007C000FF926B017C0120E030E0A9010E94CB1177
:1007D00018161CF4C701B60103C0C701B601905832
:1007E0000E94EA10E0918303AE2FB0E0A057BC4F07
:1007F0007C9382E08E0F80938303EF5FF0E0E057FD
:10080000FC4F6083FF90EF90DF90CF9008958EBDF6
:1008100000000DB407FEFDCF8EB5089560931B0355
:1008200070931C0380931D0390931E03DC01CB0186
:10083000845D9E4FAF4FBF4F809317039093180373
:10084000A0931903B0931A0382E090E090931603EB
:10085000809315030E94DA086093110370931203CA
:1008600080931303909314030895CF92DF92EF9235
:10087000FF920F931F930E94DA08009111031091C9
:10088000120320911303309114036B017C01C01AF1
:10089000D10AE20AF30A60911B0370911C03809154
:1008A0001D0390911E0348EEC41643E0D406E104F4
:1008B000F104D0F0DC01CB010196A11DB11D8093A4
:1008C0001B0390931C03A0931D03B0931E030851B8
:1008D0001C4F2F4F3F4F009311031093120320938F
:1008E000130330931403C7CF1F910F91FF90EF9024
:1008F000DF90CF9008950E9435040E94B902809144
:10090000100390E08E54984F0895CF93CFB7F8948A
:1009100080910503811127C0EFEEF1E08491E5E3BA
:10092000F2E09491E82FF0E0EE0FFF1FE459FE4F44
:10093000A591B491EC91E92321F461E085E30E9453
:10094000020861E085E30E943F088CB580618CBDA0
:100950008CB580648CBD61E084E30E943F0861E057
:1009600083E30E943F08809105038F5F8093050316
:10097000CFBF61E08091921F0E943F08CF910C94FD
:1009800031080E949D12CF93DF930E9435040E948C
:10099000B902CAE0D3E08A810E94CE03BC0187E09D
:1009A00092E00E94AD126EE272E087E092E00E9457
:1009B000A2120E9435040E94B90289810E94CE03CE
:1009C000BC0187E092E00E94A2126EE272E087E032
:1009D00092E00E94A2120E9435040E94B90288810E
:1009E0000E94CE03BC0187E092E00E94A21263EC59
:1009F00072E087E092E00E94A21287E092E0DF912D
:100A0000CF910895CF93DF930E947B0464E670E05A
:100A10000E94B40F0E94CE03BC0180E092E00E94CD
:100A2000AD120E9435040E94B902CAE0D3E08D8164
:100A30000E94CE03BC0180E092E00E94A2120E94BC
:100A400035040E94B9028C810E94CE03BC0180E073
:100A500092E00E94A21280E092E0DF91CF9108958F
:100A6000CF92DF92EF92FF920E94DA086B017C0135
:100A70006093FE027093FF02809300039093010342
:100A80000E94A906019769F40E94DA08DC01CB01F3
:100A90008C199D09AE09BF090D97A105B10580F319
:100AA00004C00E94A906892BE1F3FF90EF90DF902C
:100AB000CF9008950F931F93CF93DF930E9430053B
:100AC0000E947B086093FE027093FF0280930003F4
:100AD00090930103CAE0D0E00E9430052197E1F72E
:100AE0000E947B080091FE021091FF0220910003FA
:100AF00030910103601B710B820B930B0E94191143
:100B00009B01AC0160E876E988E19BE40E947810E3
:100B1000DF91CF911F910F9108951F920F920FB601
:100B20000F9211240BB60F922F933F934F935F9325
:100B30006F937F938F939F93AF93BF93EF93FF93A5
:100B400085EF9EE10E94EF01FF91EF91BF91AF9180
:100B50009F918F917F916F915F914F913F912F91D5
:100B60000F900BBE0F900FBE0F901F9018951F9205
:100B70000F920FB60F9211240BB60F922F938F93F3
:100B80009F93EF93FF93E091051FF091061F8081E3
:100B9000E0910B1FF0910C1F82FD12C0908180919B
:100BA0000E1F8F5F8F7320910F1F821751F0E091FE
:100BB0000E1FF0E0EB50F14E958F80930E1F01C099
:100BC0008081FF91EF919F918F912F910F900BBE9C
:100BD0000F900FBE0F901F9018951F920F920FB697
:100BE0000F9211240BB60F922F933F938F939F93E5
:100BF000AF93BF93EF93FF938091780090E0909331
:100C0000EE1E8093ED1E909179002091ED1E3091A3
:100C1000EE1E892F90E0982F8827820F931F9093C4
:100C2000EE1E8093ED1E8091F41E803CF0F4E09166
:100C3000F41EF0E0A091F41EB0E0AA0FBB1FA45A6E
:100C4000B24E2D913C918091ED1E9091EE1E820F3F
:100C5000931FEE0FFF1FE45AF24E91838083809121
:100C6000F41E8F5F8093F41E0FC080917A008F77FF
:100C700080937A0080917A00877F80937A008091B8
:100C80007A008F7B80937A00FF91EF91BF91AF91B3
:100C90009F918F913F912F910F900BBE0F900FBEA0
:100CA0000F901F90189590E0FC013197E231F1050B
:100CB00008F04EC08827EE58FF4F8F4F0C94EA0F74
:100CC000809180008F7703C0809180008F7D80931A
:100CD0008000089580918000877FF9CF84B58F7759
:100CE00002C084B58F7D84BD08958091B0008F7758
:100CF00003C08091B0008F7D8093B00008958091F3
:100D000090008F7707C0809190008F7D03C0809105
:100D10009000877F8093900008958091A0008F7746
:100D200007C08091A0008F7D03C08091A000877FC5
:100D30008093A0000895809120018F7707C0809153
:100D400020018F7D03C080912001877F8093200147
:100D50000895CF93DF93E8E4F2E08491E2E0F2E0DB
:100D6000D491ECEBF1E0C491CC2391F081110E947D
:100D70005306EC2FF0E0EE0FFF1FE056FE4FA5915B
:100D8000B491EC91ED2381E090E021F480E002C089
:100D900080E090E0DF91CF910895009769F0FC0129
:100DA00001900020E9F73197AF01481B590BBC01B6
:100DB00085EF9EE10C947A0180E090E008958F9297
:100DC0009F92AF92BF920F931F93CF93DF93CDB7B4
:100DD000DEB7A1970FB6F894DEBF0FBECDBF19A244
:100DE000423008F44AE08E010F5D1F4F842E912C93
:100DF000A12CB12CA50194010E94C80FE62FB901C6
:100E0000CA0101501109EA3014F4E05D01C0E95C47
:100E1000D801EC93232B242B252B61F7C8010E94CA
:100E2000CD06A1960FB6F894DEBF0FBECDBFDF9101
:100E3000CF911F910F91BF90AF909F908F90089589
:100E40008F929F92AF92BF92CF92DF92EF92FF92DA
:100E50000F931F93CF93DF936B017C01142F9B01A2
:100E6000AC010E948312882319F081EF92E027C021
:100E700046015701E894B7F82FEF3FEF4FE75FE7E0
:100E8000C501B4010E94831281110DC02FEF3FEF05
:100E90004FE75FE7C501B4010E94731018161CF4F8
:100EA00085EF92E00CC02FEF3FEF4FE75FE4C70103
:100EB000B6010E94CB11181684F489EF92E0DF91FD
:100EC000CF911F910F91FF90EF90DF90CF90BF9047
:100ED000AF909F908F900C94CD062FEF3FEF4FE790
:100EE0005FECC701B6010E94731087FDE6CF20E0DA
:100EF00030E0A901C701B6010E94731087FF0BC043
:100F00006DE285EF9EE10E941102EC01F7FAF09488
:100F1000F7F8F09402C0C0E0D0E000E060E070E0DC
:100F200080E09FE3101741F020E030E040E251E420
:100F30000E9478100F5FF6CFA70196010E9407105C
:100F40006B017C010E94EA104B015C014AE00E94A7
:100F5000DF06C80FD91F1123B9F1C501B4010E94E2
:100F600019119B01AC01C701B6010E9406106B016B
:100F70007C016EE285EF9EE10E941102C80FD91F2D
:100F800020E030E040E251E4C701B6010E94D011F8
:100F90004B015C010E94EA106B01E12CF12C4AE04C
:100FA000C701B6010E94DF06C80FD91FC701B601ED
:100FB0000E9419119B01AC01C501B4010E940610E9
:100FC0006B017C011150E1F6CE01DF91CF911F91B1
:100FD0000F91FF90EF90DF90CF90BF90AF909F90D8
:100FE0008F9008950C94CD06CF93DF930E94CD0689
:100FF000EC018EE492E00E94CD068C0F9D1FDF91E4
:10100000CF9108951F93CF93DF93282F30E0F901FC
:10101000EA5BFD4F8491F901E050FE4FD491F90154
:10102000E654FE4FC491CC23C1F0162F81110E94CB
:101030005306EC2FF0E0EE0FFF1FEA57FE4FA5918D
:10104000B4919FB7F894111104C08C91D095D82316
:1010500002C0EC91DE2BDC939FBFDF91CF911F91FB
:10106000089561E08091921F0E9402088FE090E055
:101070000197F1F760E08091921F0C940208CF93E2
:10108000DF9390E0FC01E050FE4F2491FC01E65418
:10109000FE4F8491882361F190E0880F991FFC0135
:1010A000E459FE4FC591D491FC01EA57FE4FA5913A
:1010B000B491611109C09FB7F8948881209582236B
:1010C0008883EC912E230BC0623061F49FB7F894B3
:1010D0008881322F309583238883EC912E2B2C939B
:1010E0009FBF06C08FB7F894E8812E2B28838FBF4F
:1010F000DF91CF9108953FB7F8948091981F909118
:10110000991FA0919A1FB0919B1F26B5A89B05C05F
:101110002F3F19F00196A11DB11D3FBFBA2FA92F76
:10112000982F8827820F911DA11DB11DBC01CD01F3
:1011300042E0660F771F881F991F4A95D1F70895DF
:101140008F929F92AF92BF92CF92DF92EF92FF92D7
:101150006B017C010E947B084B015C01C114D1042E
:10116000E104F104F1F00E947B08DC01CB01881955
:101170009909AA09BB09883E9340A105B10570F3FE
:1011800021E0C21AD108E108F10888EE880E83E058
:10119000981EA11CB11CC114D104E104F10419F77B
:1011A000DDCFFF90EF90DF90CF90BF90AF909F90FA
:1011B0008F9008952FB7F8946091941F7091951FA8
:1011C0008091961F9091971F2FBF08951F920F92A5
:1011D0000FB60F9211242F933F938F939F93AF934A
:1011E000BF938091941F9091951FA091961FB091ED
:1011F000971F3091931F23E0230F2D3720F4019682
:10120000A11DB11D05C026E8230F0296A11DB11D29
:101210002093931F8093941F9093951FA093961FE4
:10122000B093971F8091981F9091991FA0919A1F3A
:10123000B0919B1F0196A11DB11D8093981F9093A3
:10124000991FA0939A1FB0939B1FBF91AF919F913D
:101250008F913F912F910F900FBE0F901F90189577
:10126000CF93DF93CDB7DEB7A3970FB6F894DEBF69
:101270000FBECDBF789484B5826084BD84B5816093
:1012800084BD85B5826085BD85B5816085BD809151
:101290006E00816080936E001092810080918100C9
:1012A00082608093810080918100816080938100C1
:1012B000809180008160809380008091B100846083
:1012C0008093B1008091B00081608093B0008091E4
:1012D0009100826080939100809191008160809361
:1012E0009100809190008160809390008091A10096
:1012F00082608093A1008091A10081608093A10011
:101300008091A00081608093A00080912101826083
:10131000809321018091210181608093210180913E
:10132000200181608093200180917A008460809305
:101330007A0080917A00826080937A0080917A00AE
:10134000816080937A0080917A00806880937A002F
:101350001092C10060E082E00E943F0861E083E0FB
:101360000E943F0860E083E00E9402086AE070E0AB
:1013700080E090E00E94A00861E083E00E94020803
:10138000E091051FF091061F82E08083E091011F2C
:10139000F091021F1082E091031FF091041F80E181
:1013A000808310920D1FE091091FF0910A1F86E0C3
:1013B0008083E091071FF091081F80818061808306
:1013C000E091071FF091081F808188608083E09181
:1013D000071FF091081F808180688083E091071FBC
:1013E000F091081F80818F7D808380E392E00E94CE
:1013F000F40780917C008F7780937C0080917C0043
:10140000806480937C0080917C008F7D80937C0041
:1014100080917C00807F80937C0080917A008F7720
:1014200080937A0080917A008F7B80937A008091FC
:101430007A00806280937A0080917A00886080933D
:101440007A0080917A00846080937A0080917A009B
:10145000826080937A0080917A00816080937A0024
:1014600080917B008F7B80937B0080917B008B7FC2
:1014700080937B0080917B008D7F80937B008091A7
:101480007B008E7F80937B0080917E0080628093C2
:101490007E0080917E00806180937E0080917E003E
:1014A000886080937E0080917E00846080937E00BF
:1014B00080917E00826080937E0080917E008160BA
:1014C00080937E000E9485040E947B04823E9740A8
:1014D0002CF00E947B04853E974034F10E94310835
:1014E00084E00E94070480E00E940704898380E072
:1014F0000E9407048B8380E00E940704C82ED12C31
:10150000E12CF12C7601DD24CC242B81D22A3981E7
:10151000C32A80E00E940704F82A0E943108C7010C
:10152000B6010E940E04D0CF0E9402050E94F2076D
:1015300083EC92E00E94F2070E94C3040E94F40729
:101540006AE070E080E090E00E94A0080E94BC0386
:101550000E9402050E94F20783EC92E00E94F207CB
:101560000E94C3040E94F4071092EF1E1092EC1E1A
:101570001092F41E0E94DA08609388037093890326
:1015800080938A0390938B038091F41E811121C074
:101590000E94DA086093F01E7093F11E8093F21E91
:1015A0009093F31E0E94300580917A0080688093AA
:1015B0007A0080917A00886080937A0080917A0026
:1015C000806480937A0066E170E080E090E00E94A1
:1015D000A0088091F41E803C08F4B5C32091EF1E52
:1015E0002F5F2093EF1E1092F41E8091780090E000
:1015F0009093EE1E8093ED1E909179004091ED1E28
:101600005091EE1E892F90E0982F8827840F951F08
:101610009093EE1E8093ED1E243008F49EC39090AC
:10162000EC1E80E293E0989E5001999EB00C11242C
:10163000E12CF12C1A82198209811A81000F111FE5
:10164000045A124ED8016D917C91C5018E0D9F1DDB
:10165000FC01E45AFB4F6F0180E090E00E941911F9
:1016600020E030E040E85EE30E94D011D6016D93A7
:101670007D938D939C931397F80111821082298199
:101680003A812F5F3F4F3A83298334E0E30EF11C08
:1016900089819A81803C910579F61092EF1E93948E
:1016A0009092EC1E80917C00807F80937C009091D2
:1016B0007C008091EC1E8F70892B80937C00809140
:1016C000EC1E883008F449C30E94DA080091F01E2D
:1016D0001091F11E2091F21E3091F31EDC01CB011E
:1016E000801B910BA20BB30B809358049093590469
:1016F000A0935A04B0935B040E94DA0860935404E8
:10170000709355048093560490935704ACE5B4E06D
:10171000BA83A98360E070E0CB01E981FA8121916D
:10172000319141915191FA83E9830E9407102981F7
:101730003A812C55374089F720E030E040E453E40B
:101740000E9478106B017C0160932F03709330032B
:1017500080933103909332038CE594E09A838983DC
:10176000812C912C5401A981BA816D917D918D912B
:101770009D91BA83A983A70196010E94061024E1D6
:101780003EEA47E050E40E94D0119B01AC010E9468
:10179000D0119B01AC01C501B4010E9407104B019F
:1017A0005C01ECE5F7E029813A81E217F307D9F60D
:1017B000609333037093340380933503909336031F
:1017C00020E030E040E453E40E9478100E9443128D
:1017D00060937F03709380038093810390938203CF
:1017E0000091A40A1091A50A3091A60A3B8340916A
:1017F000A70A498380907C0690907D06A0907E0683
:10180000B0907F069401A501B8018B8199810E9457
:10181000CB1118161CF08401AB82B982A701960186
:10182000B8018B8199810E94061024E13EEA47E0CD
:1018300050E40E94D01160937703709378038093F3
:10184000790390937A030091840710918507809122
:1018500086078B839091870799838090FC049090F2
:10186000FD04A090FE04B090FF049401A501B8010E
:101870000E94731087FD03C08401AB82B982A70167
:101880009601B8018B8199810E94061024E13EEAFD
:1018900047E050E40E94D01160937B0370937C0377
:1018A00080937D0390937E038EE492E00E94CD06A8
:1018B00081E592E00E94F20760917F0370918003BE
:1018C000809181039091820342E00E94200789E584
:1018D00092E00E94F20760917B0370917C038091FB
:1018E0007D0390917E0342E00E94200783E692E010
:1018F0000E94F207609177037091780380917903D9
:1019000090917A0342E00E9420078DE692E00E94C7
:10191000F2070E945A0542E00E9420078EE492E0FE
:101920000E94CD06A7E3B3E0BD8BAC8BE7E5F3E007
:10193000F987E8872CEB3DE03E832D83FC83EB8326
:10194000BA83A98393E0492E512C612C712CB5E008
:10195000BF831B8A1A8A60E070E0CB01ED81FE81B3
:101960002A893B89E20FF31F208131814281538113
:101970000E940710AA89BB891496BB8BAA8BA1155C
:10198000B34061F720E030E040E453E40E94781077
:101990006E8B7F8B888F998F80912F03909130036E
:1019A000A0913103B09132038A8F9B8FAC8FBD8F92
:1019B000ACE5B4E0BB8BAA8B212C312C1E861F8694
:1019C000B0E8B88BEFEBE98B1A861B86F0E8FC8752
:1019D0002FE32D87C12CD12C760146015701AA890E
:1019E000BB896D917D918D919D91BB8BAA8B2A8D29
:1019F0003B8D4C8D5D8D0E94061024E13EEA47E050
:101A000050E40E94D0116E8F7F8F88A399A32E89F6
:101A10003F89488D598DED81FE81E20DF31D608176
:101A20007181828193810E94061021E73DE34AE0A3
:101A30005EE30E94D0118B018BA39AA32E853F8574
:101A4000488959890E94CB11181634F40E871F87D4
:101A5000BBA1B88BEAA1E98B2A853B854C855D85C6
:101A6000B8018BA19AA10E94731087FF06C00A8754
:101A70001B87FBA1FC872AA12D8798014BA15AA1A6
:101A80006E8D7F8D88A199A10E94D0119B01AC0120
:101A9000C501B4010E9407104B015C0198014BA1E4
:101AA0005AA1B8018BA19AA10E94D0119B01AC014F
:101AB000C701B6010E9407106B017C0134E0230EC0
:101AC000311C211443E0340609F089CF80922B03A6
:101AD00090922C03A0922D03B0922E0360932703C3
:101AE000709328038093290390932A038A859B850A
:101AF000AC85BD8580931F0390932003A0932103A1
:101B0000B09322038E859F85A889B989809323038A
:101B100090932403A0932503B093260320E030E0A4
:101B200040E453E4C501B4010E9478104B015C010C
:101B300020E030E0A9010E94CB11181624F0B7FA7A
:101B4000B094B7F8B094A981BA811C968D929D92F9
:101B5000AD92BC921F9720E030E040E453E4C7010F
:101B6000B6010E9478100E944312EB81FC816487C9
:101B700075878687978787E792E00E94F2074AE099
:101B8000C301B2010E94DF0680E892E00E94F207E2
:101B900060911F0370912003809121039091220393
:101BA00042E00E9420078BE892E00E94F2076091D9
:101BB000230370912403809125039091260342E032
:101BC0000E94200785E992E00E94F207AB81BC8168
:101BD0001C966D917D918D919C911F9742E00E9482
:101BE00020078FE992E00E94F207E981FA8164857B
:101BF00075858685978542E00E9420078EE492E0F5
:101C00000E94CD06FF81F150FF8329813A812C5F2C
:101C10003F4F3A8329838B819C8104969C838B83DD
:101C20009FEF491A590A690A790AAD81BE81A05EFF
:101C3000BC4FBE83AD83F1118CCE0E94DA08809038
:101C4000540490905504A0905604B09057046B0132
:101C50007C01C818D908EA08FB08C0925004D09249
:101C60005104E0925204F09253040E9485041092B1
:101C700083030E945A0520E030E04AE754E40E94C2
:101C8000D0110E94DD0320E030E048EC52E4609186
:101C90007F037091800380918103909182030E9461
:101CA000D0110E94DD0320E030E048E452E460916E
:101CB0007B0370917C0380917D0390917E030E9451
:101CC000D0110E94DD0320E030E048E452E460914E
:101CD0007703709178038091790390917A030E9441
:101CE000D0110E94DD03E885F985619171918191A0
:101CF0009191F987E88720E030E04AE754E40E94B8
:101D0000D0110E94DD03AC89BD896D917D918D91CB
:101D10009D91BD8BAC8B0E94DD03EFE6F3E028853F
:101D20003985E217F307F9F60E94310882E00E9434
:101D3000070480E00E94070480E993E09A83898386
:101D40008C01712C0DC080EE92E00E94F40760EDD2
:101D500077E080E090E00E94A0080E94800214CC0E
:101D60007394D8018D918D010E940704B0E27B121B
:101D7000F7CF0E9431086AE070E080E090E00E94B6
:101D8000A0080E94310883E00E94070480E00E94BE
:101D9000070480E00E940704A981BA818D93BA8369
:101DA000A983E0EBF3E0EA17FB0799F70E943108FB
:101DB0006AE070E080E090E00E94A0080E94BC030E
:101DC0000E94DA08DC01CB0188199909AA09BB092C
:101DD0008C199D09AE09BF0980938C0390938D03E4
:101DE000A0938E03B0938F0380917C00807F8093BB
:101DF0007C001092EC1E89EA92E00E94F20760914A
:101E000058047091590480915A0490915B044AE0FF
:101E10000E94DF0687EB92E00E94F2076091500477
:101E20007091510480915204909153044AE00E94B1
:101E3000DF0685EC92E00E94F20760918C037091BE
:101E40008D0380918E0390918F034AE00E94DF06FC
:101E50008EE492E00E94CD060E94DA080091880389
:101E60001091890320918A0330918B03DC01CB010F
:101E7000801B910BA20BB30B80938403909385037B
:101E8000A0938603B093870384ED92E00E94F2074B
:101E900060918403709185038091860390918703FC
:101EA0004AE00E94DF06009184031091850320918F
:101EB000860330918703003DF7E01F0721053105B8
:101EC00060F480ED97E0A0E0B0E0BC01CD01601BC4
:101ED000710B820B930B0E94A0080E94DA0860939A
:101EE00088037093890380938A0390938B0335CF83
:101EF000E5EFFEE11382128288EE93E0A0E0B0E00D
:101F000084839583A683B78380E292E09183808364
:101F100085EC90E09587848784EC90E097878687AE
:101F200080EC90E0918B808B81EC90E0938B828BA6
:101F300082EC90E0958B848B86EC90E0978B868B7F
:101F4000118E128E138E148E85E38093921F089546
:101F5000991B79E004C0991F961708F0961B881FFB
:101F60007A95C9F78095089597FB072E16F400948B
:101F700007D077FD09D00E94F20F07FC05D03EF490
:101F8000909581959F4F0895709561957F4F089525
:101F9000A1E21A2EAA1BBB1BFD010DC0AA1FBB1F6D
:101FA000EE1FFF1FA217B307E407F50720F0A21BDF
:101FB000B30BE40BF50B661F771F881F991F1A944C
:101FC00069F760957095809590959B01AC01BD0176
:101FD000CF010895EE0FFF1F881F8BBF0790F6916A
:101FE000E02D1994AA1BBB1B51E107C0AA1FBB1F00
:101FF000A617B70710F0A61BB70B881F991F5A9595
:10200000A9F780959095BC01CD0108955058BB2744
:10201000AA270E941E100C9491110E94831138F07F
:102020000E948A1120F039F49F3F19F426F40C9491
:1020300080110EF4E095E7FB0C947A11E92F0E94D1
:10204000A21158F3BA17620773078407950720F0A7
:1020500079F4A6F50C94C4110EF4E0950B2EBA2F6A
:10206000A02D0B01B90190010C01CA01A00111249E
:10207000FF27591B99F0593F50F4503E68F11A164A
:10208000F040A22F232F342F4427585FF3CF4695DB
:1020900037952795A795F0405395C9F77EF41F16FD
:1020A000BA0B620B730B840BBAF09150A1F0FF0FC7
:1020B000BB1F661F771F881FC2F70EC0BA0F621FB3
:1020C000731F841F48F4879577956795B795F795A3
:1020D0009E3F08F0B0CF9395880F08F09927EE0F38
:1020E0009795879508950E94561108F481E0089508
:1020F0000E948C100C9491110E948A1158F00E9439
:10210000831140F029F45F3F29F00C947A115111AA
:102110000C94C5110C9480110E94A21168F39923AC
:10212000B1F3552391F3951B550BBB27AA276217D3
:102130007307840738F09F5F5F4F220F331F441FE0
:10214000AA1FA9F335D00E2E3AF0E0E832D0915014
:102150005040E695001CCAF72BD0FE2F29D0660F01
:10216000771F881FBB1F261737074807AB07B0E844
:1021700009F0BB0B802DBF01FF2793585F4F3AF04A
:102180009E3F510578F00C947A110C94C5115F3F75
:10219000E4F3983ED4F3869577956795B795F795D0
:1021A0009F5FC9F7880F911D9695879597F90895B8
:1021B000E1E0660F771F881FBB1F62177307840754
:1021C000BA0720F0621B730B840BBA0BEE1F88F763
:1021D000E09508950E94AA1188F09F5798F0B92FB2
:1021E0009927B751B0F0E1F0660F771F881F991F4C
:1021F0001AF0BA95C9F714C0B13091F00E94C41119
:10220000B1E008950C94C411672F782F8827B85F28
:1022100039F0B93FCCF3869577956795B395D9F7A3
:102220003EF490958095709561957F4F8F4F9F4FAD
:102230000895E89409C097FB3EF4909580957095B9
:1022400061957F4F8F4F9F4F9923A9F0F92F96E902
:10225000BB279395F695879577956795B795F11177
:10226000F8CFFAF4BB0F11F460FF1BC06F5F7F4F14
:102270008F4F9F4F16C0882311F096E911C0772326
:1022800021F09EE8872F762F05C0662371F096E82F
:10229000862F70E060E02AF09A95660F771F881FFE
:1022A000DAF7880F9695879597F90895990F0008A2
:1022B000550FAA0BE0E8FEEF16161706E807F90718
:1022C000C0F012161306E407F50798F0621B730BB3
:1022D000840B950B39F40A2661F0232B242B252B34
:1022E00021F408950A2609F4A140A6958FEF811DD7
:1022F000811D089597F99F6780E870E060E0089578
:102300009FEF80EC089500240A941616170618060D
:102310000906089500240A941216130614060506E9
:102320000895092E0394000C11F4882352F0BB0F7A
:1023300040F4BF2B11F460FF04C06F5F7F4F8F4FDD
:102340009F4F089557FD9058440F551F59F05F3F18
:1023500071F04795880F97FB991F61F09F3F79F0C7
:1023600087950895121613061406551FF2CF469549
:10237000F1DF08C0161617061806991FF1CF8695CB
:102380007105610508940895E894BB2766277727AF
:10239000CB0197F908950E94561108F48FEF089524
:1023A0000E94E3110C9491110E94831138F00E9455
:1023B0008A1120F0952311F00C947A110C9480115D
:1023C00011240C94C5110E94A21170F3959FC1F3C2
:1023D000950F50E0551F629FF001729FBB27F00DD3
:1023E000B11D639FAA27F00DB11DAA1F649F662728
:1023F000B00DA11D661F829F2227B00DA11D621F77
:10240000739FB00DA11D621F839FA00D611D221F30
:10241000749F3327A00D611D231F849F600D211D14
:10242000822F762F6A2F11249F5750409AF0F1F097
:1024300088234AF0EE0FFF1FBB1F661F771F881F00
:1024400091505040A9F79E3F510580F00C947A11AD
:102450000C94C5115F3FE4F3983ED4F386957795CD
:102460006795B795F795E7959F5FC1F7FE2B880FA6
:10247000911D9695879597F9089519F416F40C9483
:1024800080110C9488120E94AA11B8F39923C9F301
:10249000B6F39F57550B87FF0E9496120024A0E6C3
:1024A00040EA900180585695979528F4805C660F15
:1024B000771F881F20F026173707480730F4621B64
:1024C000730B840B202931294A2BA6951794079466
:1024D000202531254A2758F7660F771F881F20F0DF
:1024E00026173707480730F4620B730B840B200D57
:1024F000311D411DA09581F7B901842F9158880F96
:102500009695879508950E945611880B990B08950A
:102510009F3F31F0915020F4879577956795B79557
:10252000880F911D9695879597F908959150504081
:10253000660F771F881FD2F7089581E090E0F89426
:102540000C94B412FB01DC010D900020E9F7119707
:1025500001900D920020E1F70895FB01DC0101904C
:0C2560000D920020E1F70895F894FFCFE1
:10256C0079796D6D64640068683A6D6D3A737300C7
:10257C001F1C1F1E1F1E1F1F1E1F1E1F00000000E2
:10258C0011027A01A8015E02D901B701CB013A0010
:10259C000A0D524D532056657273696F6E20352E9D
:1025AC00352020323031392D30362D3238000D0A9D
:1025BC000056726D73203D20002C20566D696E20E4
:1025CC003D20002C20566D6178203D20002C2046AB
:1025DC00726571203D2000436972637569745B00FC
:1025EC005D3A20496D696E203D20002C20496D61BB
:1025FC0078203D20002C2049726D73203D20002C4A
:10260C002057726D73203D200020207363616E2073
:10261C0074696D653A2000202063616C63207469D5
:10262C006D653A20002020636F6D6D732074696DA9
:10263C00653A20006C6F6F702074696D653A2000EC
:10264C006661696C656420746F2073616D706C6574
:0E265C00006E616E00696E66006F76660000AB
:00000001FF
